:100000000C945C000C9479000C9479000C947900A9
:100010000C9479000C9479000C9479000C9479007C
:100020000C9479000C9479000C9479000C9479006C
:100030000C9479000C9479000C9479000C9479005C
:100040000C94EC000C9479000C9479000C947900D9
:100050000C9479000C9479000C9479000C9479003C
:100060000C9479000C947900000000002400270013
:100070002A0000000000250028002B0004040404CE
:100080000404040402020202020203030303030342
:10009000010204081020408001020408102001021F
:1000A00004081020000000080002010000030407FB
:1000B000000000000000000011241FBECFEFD8E0B8
:1000C000DEBFCDBF11E0A0E0B1E0E2ECF3E002C0A2
:1000D00005900D92AC30B107D9F721E0ACE0B1E06A
:1000E00001C01D92A531B207E1F70E9436010C94C0
:1000F000DF010C94000090E0FC01EC55FF4F2491CF
:10010000FC01E057FF4F3491FC01E458FF4FE491AC
:10011000EE23C9F0222339F0233001F1A8F4213075
:1001200019F1223029F1F0E0EE0FFF1FEE58FF4FDA
:10013000A591B4918FB7F894EC91611126C03095D8
:100140003E233C938FBF08952730A9F02830C9F093
:10015000243049F7809180008F7D03C0809180001A
:100160008F7780938000DFCF84B58F7784BDDBCF1E
:1001700084B58F7DFBCF8091B0008F778093B000E6
:10018000D2CF8091B0008F7DF9CF3E2BDACF3FB731
:10019000F8948091110190911201A0911301B091F6
:1001A000140126B5A89B05C02F3F19F00196A11D8B
:1001B000B11D3FBFBA2FA92F982F8827BC01CD01B1
:1001C000620F711D811D911D42E0660F771F881F10
:1001D000991F4A95D1F708951F920F920FB60F926B
:1001E00011242F933F938F939F93AF93BF9380914D
:1001F0000D0190910E01A0910F01B091100130916D
:100200000C0123E0230F2D3758F50196A11DB11DD8
:1002100020930C0180930D0190930E01A0930F0188
:10022000B09310018091110190911201A0911301DE
:10023000B09114010196A11DB11D809311019093FD
:100240001201A0931301B0931401BF91AF919F913C
:100250008F913F912F910F900FBE0F901F90189587
:1002600026E8230F0296A11DB11DD2CF789484B544
:10027000826084BD84B5816084BD85B5826085BDA2
:1002800085B5816085BD80916E00816080936E0030
:100290001092810080918100826080938100809122
:1002A00081008160809381008091800081608093D3
:1002B00080008091B10084608093B1008091B00093
:1002C00081608093B00080917A00846080937A008E
:1002D00080917A00826080937A0080917A008160B8
:1002E00080937A0080917A00806880937A001092DF
:1002F000C100C0E0D1E0899199919927FC01E057B4
:10030000FF4F249184589F4FFC018491882399F0DA
:1003100090E0880F991FFC01E859FF4FA591B49117
:10032000FC01EE58FF4F859194918FB7F894EC91B2
:10033000E22BEC938FBFF1E0CC30DF07E1F690E0E9
:10034000A92E90E0B92E00E011E0F80190800E5F38
:100350001F4F61E0892D0E947B000E94C7002B0186
:100360003C0188EEC82E83E0D82EE12CF12C0E94AF
:10037000C7006419750986099709683E73408105AD
:100380009105A8F3F1E0CF1AD108E108F10828EEB1
:10039000420E23E0521E611C711CC114D104E10401
:1003A000F10429F760E0892D0E947B00C017D10776
:1003B00061F6A114B10439F20E940000C4CFF89490
:0203C000FFCF6D
:0C03C20003000500060009000A000B0003
:00000001FF
